:020000040800F2
:100000000000082065690008CD130008D11300081E
:10001000D5130008D9130008DD1300080000000004
:10002000000000000000000000000000E1130008D4
:10003000E513000800000000E9130008B58200087D
:10004000B5690008B5690008B5690008B569000818
:10005000B5690008B5690008B5690008B569000808
:10006000B5690008B5690008B5690008B5690008F8
:10007000B5690008B5690008B5690008B5690008E8
:10008000ED130008F91300084D140008B5690008C5
:10009000B5690008B5690008B5690008B5690008C8
:1000A000B5690008B5690008B5690008B5690008B8
:1000B0001D140008B5690008B5690008B569000895
:1000C000B5690008B5690008B5690008B569000898
:1000D000B56900082914000835140008B56900083E
:1000E000B5690008B5690008B5690008B569000878
:1000F000B5690008B5690008B5690008B569000868
:10010000B5690008B5690008B5690008B569000857
:10011000B5690008B5690008B5690008B569000847
:1001200041140008B569000811140008B5690008F9
:10013000B5690008B5690008B5690008B569000827
:10014000B5690008B5690008B5690008B569000817
:10015000B5690008B569000805140008B56900080C
:10016000B5690008B5690008B5690008B5690008F7
:10017000B5690008B5690008B5690008000000000D
:10018000B5690008B5690008B5690008B5690008D7
:10019000B5690008B5690008B5690008B5690008C7
:1001A000B5690008B5690008B5690008B5690008B7
:1001B000B5690008B5690008B5690008B5690008A7
:1001C000B5690008B569000800000000B5690008BD
:1001D000B5690008B5690008B5690008B569000887
:1001E000B5690008B5690008B5690008B569000877
:0801F000B5690008B5690008BB
:1002000010B5054C237833B9044B13B10448AFF350
:1002100000800123237010BD200D0020000000008D
:100220001837010808B5034B1BB103490348AFF366
:10023000008008BD00000000240D002018370108D0
:100240004B1C012B98BF70472DE9F003911C9B08B4
:10025000B1F80480B1F802900A8831F802CC8044E9
:10026000814402448444D9F80070D8F800601568CD
:10027000DCF80040C9F80060C8F80070CCF8005005
:100280001460D9F80470D8F804605568DCF80440AC
:10029000C9F80460C8F80470CCF804505460083100
:1002A000013BD5D1BDE8F00370474B1C012B98BF33
:1002B00070472DE9F003911C9B08B1F80480B1F858
:1002C00002900A8831F802CC00EB580800EB59097B
:1002D00000EB520200EB5C0CD9F80070D8F800601B
:1002E0001568DCF80040C9F80060C8F80070CCF868
:1002F000005014600831013BDFD1BDE8F0037047C6
:10030000844641EA000313F003036DD1403A41D320
:1003100051F8043B40F8043B51F8043B40F8043BDF
:1003200051F8043B40F8043B51F8043B40F8043BCF
:1003300051F8043B40F8043B51F8043B40F8043BBF
:1003400051F8043B40F8043B51F8043B40F8043BAF
:1003500051F8043B40F8043B51F8043B40F8043B9F
:1003600051F8043B40F8043B51F8043B40F8043B8F
:1003700051F8043B40F8043B51F8043B40F8043B7F
:1003800051F8043B40F8043B51F8043B40F8043B6F
:10039000403ABDD2303211D351F8043B40F8043B0F
:1003A00051F8043B40F8043B51F8043B40F8043B4F
:1003B00051F8043B40F8043B103AEDD20C3205D31F
:1003C00051F8043B40F8043B043AF9D2043208D017
:1003D000D2071CBF11F8013B00F8013B01D30B8889
:1003E00003806046704700BF082A13D38B078DD067
:1003F00010F003038AD0C3F10403D21ADB071CBF39
:1004000011F8013B00F8013B80D331F8023B20F8A2
:10041000023B7BE7043AD9D3013A11F8013B00F8DB
:10042000013BF9D20B7803704B7843708B78837063
:10043000604670470000000000000000000000005F
:10044000A2EB0300704700BF02780B78012A28BF97
:100450009A42F5D16DE9044540EA0104CDE902670D
:100460006FF0000C4FEA447212B380EA010414F0FA
:10047000070F6AD100F0070420F0070004F003051D
:1004800021F007014FEAC505F0E8042314F0040F3A
:10049000F1E804670CFA05F462EA040266EA04066D
:1004A0000AD063EA0403624667EA0407664603E08B
:1004B000F0E80423F1E8046782FA4CF582EA0604C6
:1004C000A4FA8CF46CBB83FA4CF583EA0705A5FA11
:1004D0008CF595B950E9022351E9026782FA4CF58F
:1004E00082EA0604A4FA8CF483FA4CF583EA070541
:1004F000A5FA8CF52543DBD09CB92DBAB5FA85F465
:1005000024F0070427FA04F1DDE9026723FA04F373
:1005100003F0FF0001F0FF01FDE80445A0EB01003E
:10052000704724BAB4FA84F424F0070426FA04F1DC
:10053000DDE9026722FA04F202F0FF0001F0FF0198
:10054000FDE80445A0EB0100704714F0030F3CD117
:1005500010F0030428D150F8082B51F8083B82FA18
:100560004CF582EA0305A5FA8CF55DB950F8042C28
:1005700051F8043C82FA4CF582EA0305A5FA8CF5A1
:10058000002DE8D02DBAB5FA85F424F0070423FA3B
:1005900004F122FA04F202F0FF0001F0FF01FDE88D
:1005A0000445A0EB010070474FEAC40420F00300AB
:1005B00050F8082B21F0030151F8083B0CFA04F421
:1005C00062EA040263EA0403C9E710F003041AD0E4
:1005D000A1EB040120F00300E40750F8042B06D03F
:1005E0000FD28B785FFAA2F4E41A06D12BB1CB7844
:1005F0005FFAB2F4E41A00D11BB920465DF8104B43
:10060000704701F1040150F8042BCC0721F00301DD
:1006100051F8043B48D824D222F07F4482FA4CF5AA
:1006200094EA1325A5FA8CF50AD165B951F8043B73
:1006300084EA0204B4EB036F0ED150F8042BEBE70D
:100640004FEA132355E035F07F454DD10878FDE89A
:100650000445C0F1000070474FEA126203F0FF0347
:1006600047E002EA1C4482FA4CF594EA1345A5FAE5
:100670008CF50AD165B951F8043B84EA0204B4EB65
:10068000034F0CD150F8042BEBE74FEA134330E053
:1006900015EA1C4528D10B884FEA124229E04FEA9F
:1006A000124203EA1C4324E002F0FF0482FA4CF5F4
:1006B00094EA1365A5FA8CF50AD165B951F8043BA3
:1006C00084EA0204B4EB032F09D150F8042BEBE7C2
:1006D0004FEA13630DE015F0FF0F05D10B684FEAE9
:1006E000122223F07F4304E04FF00000FDE80445B0
:1006F000704712BA1BBA82FA4CF482EA0304A4FAD5
:100700008CF5B5FA85F402FA04F203FA04F34FEA21
:100710001260FDE80445A0EB136070470000000084
:1007200000000000000000000000000000000000C9
:1007300000000000000000000000000000000000B9
:1007400090F800F06DE9024520F007016FF0000C11
:1007500010F0070491F820F040F049804FF00004B9
:100760006FF00700D1E9002391F840F000F1080094
:1007700082FA4CF2A4FA8CF283FA4CF3A2FA8CF3CC
:100780004BBBD1E9022382FA4CF200F10800A4FA33
:100790008CF283FA4CF3A2FA8CF3E3B9D1E9042387
:1007A00082FA4CF200F10800A4FA8CF283FA4CF3BE
:1007B000A2FA8CF37BB9D1E9062301F1200182FA78
:1007C0004CF200F10800A4FA8CF283FA4CF3A2FA7E
:1007D0008CF3002BC6D0002A04BF04301A4612BA8C
:1007E000B2FA82F2FDE8024500EBD2007047D1E98F
:1007F000002304F00305C4F100004FEAC50514F01E
:10080000040F91F840F00CFA05F562EA05021CBFEE
:1008100063EA050362464FF00004A9E70000000008
:1008200001F0FF01102A2BDB10F0070F08D010F8A1
:10083000013B013A8B422DD010F0070F42B3F6D1A5
:10084000F0B441EA012141EA014122F007047FF0BE
:1008500000070023F0E80256083C85EA010586EA15
:10086000010685FA47F5A3FA87F586FA47F6A5FA51
:1008700087F68EB9EED1F0BC01F0FF0102F007025D
:1008800032B110F8013B013A83EA010313B1F8D108
:100890000020704701387047002D06BF35460338E9
:1008A000073815F0010F07D1013015F4807F02BF22
:1008B000013015F4C03F0130F0BC0138704700BF73
:1008C00081F0004102E000BF83F0004330B54FEA01
:1008D00041044FEA430594EA050F08BF90EA020F6E
:1008E0001FBF54EA000C55EA020C7FEA645C7FEA01
:1008F000655C00F0E2804FEA5454D4EB5555B8BF24
:100900006D420CDD2C4480EA020281EA030382EA94
:10091000000083EA010180EA020281EA0303362D26
:1009200088BF30BD11F0004F4FEA01314FF4801CF9
:100930004CEA113102D0404261EB410113F0004F0B
:100940004FEA03334CEA133302D0524263EB4303C2
:1009500094EA050F00F0A780A4F10104D5F1200E60
:100960000DDB02FA0EFC22FA05F2801841F10001BB
:1009700003FA0EF2801843FA05F359410EE0A5F18F
:1009800020050EF1200E012A03FA0EFC28BF4CF0C0
:10099000020C43FA05F3C01851EBE37101F0004576
:1009A00007D54FF0000EDCF1000C7EEB00006EEB83
:1009B0000101B1F5801F1BD3B1F5001F0CD349080D
:1009C0005FEA30004FEA3C0C04F101044FEA445264
:1009D00012F5800F80F09A80BCF1004F08BF5FEAEB
:1009E000500C50F1000041EB045141EA050130BDCB
:1009F0005FEA4C0C404141EB0101013C28BFB1F5DD
:100A0000801FE9D291F0000F04BF01460020B1FA27
:100A100081F308BF2033A3F10B03B3F120020CDAFA
:100A20000C3208DD02F1140CC2F10C0201FA0CF0D8
:100A300021FA02F10CE002F11402D8BFC2F1200C3D
:100A400001FA02F120FA0CFCDCBF41EA0C019040F3
:100A5000E41AA2BF01EB0451294330BD6FEA04043C
:100A60001F3C1CDA0C340EDC04F11404C4F1200227
:100A700020FA04F001FA02F340EA030021FA04F339
:100A800045EA030130BDC4F10C04C4F1200220FA90
:100A900002F001FA04F340EA0300294630BD21FACE
:100AA00004F0294630BD94F0000F83F4801306BF94
:100AB00081F480110134013D4EE77FEA645C18BF88
:100AC0007FEA655C29D094EA050F08BF90EA020F1F
:100AD00005D054EA000C04BF1946104630BD91EA17
:100AE000030F1EBF0021002030BD5FEA545C05D11A
:100AF0004000494128BF41F0004130BD14F5800459
:100B00003CBF01F5801130BD01F0004545F0FE41CC
:100B100041F470014FF0000030BD7FEA645C1ABF01
:100B2000194610467FEA655C1CBF0B46024650EA38
:100B3000013406BF52EA033591EA030F41F4002164
:100B400030BD00BF90F0000F04BF0021704730B5EA
:100B50004FF4806404F132044FF000054FF00001BF
:100B600050E700BF90F0000F04BF0021704730B580
:100B70004FF4806404F1320410F0004548BF404255
:100B80004FF000013EE700BF42004FEAE2014FEAAA
:100B900031014FEA02701FBF12F07F4393F07F4F85
:100BA00081F06051704732F07F4208BF704793F088
:100BB0007F4F04BF41F40021704730B54FF460749B
:100BC00001F0004521F000411CE700BF50EA01029E
:100BD00008BF704730B54FF000050AE050EA010247
:100BE00008BF704730B511F0004502D5404261EBB7
:100BF00041014FF4806404F132045FEA915C3FF4F8
:100C0000D8AE4FF003025FEADC0C18BF03325FEA94
:100C1000DC0C18BF033202EBDC02C2F1200300FA45
:100C200003FC20FA02F001FA03FE40EA0E0021FA6A
:100C300002F11444BDE600BF53B94AB9002908BF08
:100C400000281CBF4FF0FF314FF0FF3000F0ACB96F
:100C5000ADF1080C6DE904CE00F03EF8DDF804E0DB
:100C6000DDE9022304B0704708B502460B4643ECA9
:100C7000172BB5EEC07BF1EE10FA03D4BDE80840A7
:100C800000F00AB8B1EE477B51EC170B00F004F806
:100C9000404261EB410108BD9FED0B6B41EC170B2E
:100CA0009FED0B5B27EE066BBCEEC66BB8EE464BBA
:100CB000A4EE457BFCEEC77B16EE101A17EE900AE9
:100CC000704700BFAFF30080000000000000F03D5F
:100CD000000000000000F0412DE9F047089D0446A7
:100CE0008E46002B4DD18A42944669D9B2FA82F2DF
:100CF00052B101FA02F3C2F1200120FA01F10CFA1B
:100D000002FC41EA030E94404FEA1C48210CBEFB52
:100D1000F8F61FFA8CF708FB16E341EA034306FBDB
:100D200007F199420AD91CEB030306F1FF3080F06A
:100D30001F81994240F21C81023E63445B1AA4B2B7
:100D4000B3FBF8F008FB103344EA034400FB07F759
:100D5000A7420AD91CEB040400F1FF3380F00A819A
:100D6000A74240F207816444023840EA0640E41B8F
:100D700000261DB1D4400023C5E900433146BDE83B
:100D8000F0878B4209D9002D00F0EF800026C5E9DD
:100D9000000130463146BDE8F087B3FA83F6002EF5
:100DA0004AD18B4202D3824200F2F980841A61EB6D
:100DB000030301209E46002DE0D0C5E9004EDDE78B
:100DC00002B9FFDEB2FA82F2002A40F09280A1EB73
:100DD0000C014FEA1C471FFA8CFE0126200CB1FBC8
:100DE000F7F307FB131140EA01410EFB03F08842C1
:100DF00008D91CEB010103F1FF3802D2884200F24E
:100E0000CB804346091AA4B2B1FBF7F007FB1011DF
:100E100044EA01440EFB00FEA64508D91CEB04047D
:100E200000F1FF3102D2A64500F2BB800846A4EBD8
:100E30000E0440EA03409CE7C6F12007B34022FAC3
:100E400007FC4CEA030C20FA07F401FA06F31C43F2
:100E5000F9404FEA1C4900FA06F3B1FBF9F8200CFF
:100E60001FFA8CFE09FB181140EA014108FB0EF045
:100E7000884202FA06F20BD91CEB010108F1FF3A95
:100E800080F08880884240F28580A8F102086144A1
:100E9000091AA4B2B1FBF9F009FB101144EA0141AF
:100EA00000FB0EFE8E4508D91CEB010100F1FF345A
:100EB0006CD28E456AD90238614440EA0840A0FBF2
:100EC0000294A1EB0E01A142C846A64656D353D0C8
:100ED0005DB1B3EB080261EB0E0101FA07F722FAEC
:100EE00006F3F1401F43C5E9007100263146BDE815
:100EF000F087C2F12003D8400CFA02FC21FA03F378
:100F0000914001434FEA1C471FFA8CFEB3FBF7F0F8
:100F100007FB10360B0C43EA064300FB0EF69E421D
:100F200004FA02F408D91CEB030300F1FF382FD2B6
:100F30009E422DD9023863449B1B89B2B3FBF7F65E
:100F400007FB163341EA034106FB0EF38B4208D937
:100F50001CEB010106F1FF3816D28B4214D9023E78
:100F60006144C91A46EA004638E72E46284605E796
:100F70000646E3E61846F8E64B45A9D2B9EB020867
:100F800064EB0C0E0138A3E74646EAE7204694E7F7
:100F90004046D1E7D0467BE7023B614432E730462A
:100FA00009E76444023842E7704700BF70B5314B2F
:100FB0008CB000240122304E0A94304D3046CDE9E9
:100FC0000644CDE90844196B41F080011963196B9F
:100FD00001F0800101910199196B11431963196B9B
:100FE000114002910299196B41F002011963196BCA
:100FF00001F0020103910399196B41F00401196397
:10100000196B01F0040104910499196B41F0080176
:10101000196320211B6B03F008030593059B01F066
:10102000B5FF22462846202101F0B0FF20221123DF
:10103000304606A9CDE9062301220023CDE9082385
:1010400001F0F6FD2022012306A92846CDE906235A
:1010500000220023CDE9082301F0EAFDC02200238D
:1010600006A928460894CDE9062301F0E1FD0CB05D
:1010700070BD00BF00380240000002400004024082
:101080001F4B00220421102010B51C6B82B044F4C9
:1010900000141C631C6B04F400140094009C1C6B73
:1010A00044F480041C631B6B03F480030193019BD5
:1010B00002F0ACFF102002F0F3FF01220421112006
:1010C00002F0A4FF112002F0EBFF002203213820E0
:1010D00002F09CFF382002F0E3FF012205214620A8
:1010E00002F094FF462002F0DBFF3A2000220521A7
:1010F00002F08CFF3A2002B0BDE8104002F0D0BFF1
:10110000003802400000000010B54FF08040464C0F
:1011100041F21751002396B00422236104930193F6
:101120000E93A3610793C4E900012046C4E902328B
:10113000CDE90533CDE90233CDE90F33CDE91133E4
:10114000CDE9133303F0E6F8002830D14FF4805393
:1011500004A93548049303F04FFD002833D13248E9
:1011600003F00EFA60BB002301A92F4801930393FB
:1011700004F0A4FD08BB00230EA904222A48109302
:1011800012939FED237B8DED0E7B04F02DF988B932
:1011900022680023B2F1804F0C93CDE90833CDE9EA
:1011A0000A332ED0214B9A4210D016B010BD05F054
:1011B0005DFCCBE705F05AFCEAE705F057FCDAE7FF
:1011C00005F054FCCFE705F051FCC8E703F50D33FB
:1011D000022408A916481A6B42F004021A631B6B1A
:1011E0000C9403F004039FED0C7B0093009B8DEDAA
:1011F000087B9FED0B7B8DED0A7B01F019FD16B08E
:1012000010BD0421084803F0EFFA2268CAE700BFC6
:101210007000000002000000C00100000200000099
:1012200000000000000000003C0D00200004004011
:10123000000802400000000010B54D481A214D4C36
:10124000002396B040F69F722361049301930E939E
:10125000A3610793C4E900012046C4E90232CDE945
:101260000533CDE90233CDE90F33CDE91133CDE9B3
:10127000133303F04FF800283CD14FF4805304A9F6
:101280003C48049303F0B8FC002845D1394803F0EA
:101290007FFB00283DD1002301A936480193039329
:1012A00004F00CFD90BB602000210022CDE90E016E
:1012B0000EA930481092129204F094FA18BB04223E
:1012C0000EA92C4804F08EFAD0B908220EA929489C
:1012D00004F088FA88B922680023B2F1804F0C9399
:1012E000CDE90833CDE90A3334D0214B9A4216D0E8
:1012F00016B010BD05F0BAFBBFE705F0B7FBEAE793
:1013000005F0B4FBE1E705F0B1FBD8E705F0AEFB73
:10131000C9E705F0ABFBBEE705F0A8FBB6E703F5B0
:101320000D33022408A914481A6B42F004021A6310
:101330001B6B0C9403F004039FED097B0093009B4F
:101340008DED087B9FED087B8DED0A7B01F070FC35
:1013500016B010BD0421074803F046FA2268C4E71E
:10136000C0010000020000000000000000000000BA
:10137000000400407C0D002000080240036882B099
:10138000B3F1804F10D00F4A934201D002B07047A2
:101390000D4B1A6C42F002021A641B6C03F002033C
:1013A0000193019B02B0704703F50E331A6C42F0B3
:1013B00001021A641B6C03F001030093009B02B04E
:1013C000704700BF0004004000380240704700BF73
:1013D000FEE700BFFEE700BFFEE700BFFEE700BF7D
:1013E000704700BF704700BF704700BF014802F060
:1013F00005B800BFF0450320014801F0FFBF00BF62
:1014000050460320014801F0F9BF00BF904503207A
:10141000014801F0F3BF00BF30450320014803F04D
:10142000C7BE00BF3C0D0020014804F007BE00BF4E
:10143000B0460320014804F001BE00BF304703203E
:10144000014801F0DBBF00BF08160020014800F092
:101450008DB900BFC01500200A4B82B01A6C42F053
:1014600080521A641A6C02F080520092009A5A6CF0
:1014700042F480425A645B6C03F480430193019B05
:1014800002B0704700380240002800F04481036831
:10149000A749A84A8B4218BF934270B5044603D0AF
:1014A00002F58072934277D1636833F440337CD184
:1014B000A36833F0407340F082802369012B4ED83B
:1014C000A369012B45D8A26A22F0407122F08070F6
:1014D000B1F1806F18BF002914BF01230023B1F1BF
:1014E000006F0CBF002303F00103B0F1406F0CBF8D
:1014F000002303F0010323B102F17142012A00F23B
:101500001181E36833F4006365D1E369013B0F2B7C
:101510005BD894F83030012B30D86369022B35D872
:1015200094F82030012B23D8834BA26A9A4204D02E
:10153000E36A33F0405340F0E880256C002D00F062
:10154000D480236CDB064CD50023012084F83C308A
:1015500070BD4FF4A871794805F090FAB3E740F2F6
:101560004F11764805F08AFAA369012BABD9F0E751
:101570004FF4AB71714805F081FAD5E74FF4AA71C9
:101580006E4805F07BFA6369022BC9D940F2551108
:101590006A4805F073FAC3E74FF4A671674805F08F
:1015A0006DFA636833F4403382D040F24D116348E2
:1015B00005F064FAA36833F040733FF47EAF4FF454
:1015C000A7715E4805F05AFA77E740F253115B487D
:1015D00005F054FA9DE74FF4A971584805F04EFA0A
:1015E00093E7216C564B574A0B4043F002032364A8
:1015F0005168236821F440315160516860680143AB
:101600004D4851605968256921F4807159605A68C4
:1016100042EA0522A5685A605A6822F040725A6070
:1016200059682943E5685960996821F40061996017
:10163000A16A9A68814242EA05029A605CD0986881
:10164000E56A20F0706098609A6811439960996823
:1016500021F0405199609A682A439A609968A0697C
:1016600021F0020199609A6842EA40029A6094F877
:101670002020002A51D0626A013A072A64D85968AA
:1016800041F400615960596821F46041596059681A
:1016900041EA42325A60DA6A0026E16922F47002B5
:1016A0006569481EDA62D96A41EA00513046D9625A
:1016B000996821F400719960996894F8302041EAA2
:1016C00042219960996821F4806199609A6842EAA0
:1016D00085229A606664236C23F0030343F00103C0
:1016E0002364002384F83C3070BD204605F0ECFAFA
:1016F000656484F83C5024E79A6822F070629A602E
:101700009A6822F040529A60A8E74FF4AD710B48F6
:1017100005F0B4F911E7012070475A6822F400621D
:101720005A60B8E740F25111044805F0A7F9E8E61D
:1017300000200140002101400100000F3C3701085A
:10174000FDEEFFFF002301404FF4EE61034805F07A
:1017500095F9626A2368013A91E700BF3C370108B6
:10176000704700BF704700BF704700BF38B583693E
:101770000446012B04D940F2A541554805F07EF9F5
:10178000E369013B0F2B00F28C806369022B00F2AE
:10179000828023681A68596890072BD58A0629D554
:1017A000226CD50603D4226C42F4007222649A683B
:1017B00012F0405F17D1A269AAB9DA6A12F4700F69
:1017C00002D09A6850050ED45A6822F020025A605E
:1017D000236C23F480732364236CD90403D4236C17
:1017E00043F0010323642046FFF7BAFF23686FF03C
:1017F00012021A601A68596852072FD50D062DD5A6
:10180000226CD00603D4226C42F4005222649A68FF
:1018100012F4401F1BD19A6B12F4401F53D15A6827
:10182000520514D49A6812F0405F10D1A26972B9BF
:101830005A6822F080025A60236C23F48053236498
:10184000236CDD0503D4236C43F00103236420469D
:1018500000F020F923686FF00C021A6019685A68CA
:10186000500604D5CA0702D51A68D5071FD41A68CE
:101870005968900601D54A0100D438BD626C6FF0FA
:101880002005204642F0020262641D60FFF76CFFF3
:1018900023681D6038BD40F2A7410D4805F0EEF801
:1018A00077E740F2A6410A4805F0E8F86DE7236CB7
:1018B000204643F480332364FFF754FF23686FF01E
:1018C00001021A60D3E79A685105C0D4A7E700BFA8
:1018D0003C370108F0B5002383B00C460546019360
:1018E0000B68122B03D9664A934240F08F806368DD
:1018F000013B0F2B00F29480A368072B00F2998024
:1019000095F83C30012B00F09E80012385F83C3097
:1019100020682B68092828D800EB40064FF0070CF8
:1019200019690CFA06FCA26821EA0C01B24019619F
:1019300019690A4301461A616268062A2CD802EB2B
:1019400082021F24053A914094405A6B22EA040215
:101950005A635A6B114359634A4A93422ED000236B
:10196000184685F83C3003B0F0BD81B24FF0070C4B
:10197000DE6801EB4102424F1E3AB8420CFA02FC0B
:1019800026EA0C06DE6074D0A6689640DA68164334
:101990006268062ADE60D2D90C2A02EB820255D890
:1019A000233A1F24914094401A6B22EA04021A63DE
:1019B0001A6B1143334A93421963D0D1122851D084
:1019C0002F4B984201D01128C9D12F4A2C49536876
:1019D000884243F400035360C1D102F146722B4B9D
:1019E00002F52E321B6802F28332A2FB03239B0C0A
:1019F00003EB83035B000193019B002BAFD0019BA2
:101A0000013B0193019B002BF9D1A8E740F25C61F7
:101A10001F4805F033F86368013B0F2B7FF66CAF6E
:101A200040F25D611A4805F029F8A368072B7FF69C
:101A300067AF40F25E61164805F020F895F83C303B
:101A4000012B7FF462AF022003B0F0BD413A1F24A6
:101A500091409440DA6A22EA0402DA62DA6A1143B7
:101A6000D96279E7D2F8043343F48003C2F804332F
:101A700075E7A168DA6842EA01621221DA605BE781
:101A80001200001000200140002301400C00002043
:101A90003C370108704700BF002800F0308203681F
:101AA0000F2B2DE9F041044682B000F22281DD07C0
:101AB00034D5636833F4803203D0B3F5A02F40F0FF
:101AC0007381A24A936803F00C03042B1DD0936822
:101AD00003F00C03082B15D06368B3F5803F00F0CA
:101AE0006981002B00F09A81B3F5A02F974B1A68FB
:101AF00000F00D8222F480321A601A6822F48022EB
:101B00001A605CE153685802E6D5904B1B68990354
:101B100003D56368002B00F0FE8023689F0731D552
:101B2000E368012B00F2FB8023691F2B00F2008188
:101B3000864B9A6812F00C0F00F0E6809A6802F06B
:101B40000C02082A00F0DC80E368804D002B00F0D6
:101B50009B812B6843F001032B6002F011FB0646CA
:101B600005E002F00DFB801B022800F253812B6878
:101B70009807F6D52B68226923F0F80343EAC203DD
:101B80002B6023681A072AD45E0744D5A368012B6B
:101B900006D9052B04D040F207216D4804F06EFFF2
:101BA0006A4B1A6CD50040F1EA800025694E336813
:101BB000D80540F11F81A368012B00F07781002B2D
:101BC00000F04281052B614B1A6F00F0BA8122F0C0
:101BD00001021A671A6F22F004021A676BE1636947
:101BE000012B00F2C280594D002B00F0A7806B6FD3
:101BF00043F001036B6702F0C3FA064605E002F00A
:101C0000BFFA801B022800F205816B6F9B07F6D597
:101C100023685E07BAD4A369022B00F2BB80002BB5
:101C200063D04A4DAA6802F00C02082A73D0022B36
:101C300040F05481E36933F4800340F07081236AFB
:101C4000023B3D2B00F27781636A323BB3F5BF7FE5
:101C500000F26B81A36A082B00F253814FF4AA7241
:101C600022FA03F3D80740F14C81E36A023B0D2BC3
:101C700000F27581236B023B052B00F26A81334D24
:101C80002B6823F080732B6002F07AFA064605E099
:101C900002F076FA801B022800F2BC802B689901C2
:101CA000F6D4D4E90731626A0B43216B274E43EA2D
:101CB0008213D4E90A2043EA0063520843EA01731D
:101CC000013A43EA02436B602B6843F080732B6058
:101CD00002F056FA044605E002F052FA001B022810
:101CE00000F2988033689A01F6D5002002B0BDE872
:101CF000F0814FF4B271164804F0C0FE2368D6E6B6
:101D00005B685E023FF520AF104B1B689D0764D5F2
:101D1000E368012B61D0012002B0BDE8F0814FF4EF
:101D2000CE710B4804F0AAFE23691F2B7FF600AF8B
:101D300040F29D11064804F0A1FEF9E66B6F23F016
:101D400001036B6702F01CFA06460AE00038024005
:101D5000743701080070004002F012FA801B02285C
:101D600058D86B6F9F07F7D452E740F2DD117F48D8
:101D700004F084FE63697E4D002BDFD037E71A6CD8
:101D8000012542F080521A641B6C03F080530193CA
:101D9000019B0BE740F24B21744804F06FFEA369EE
:101DA000002B7FF43EAFA0E74FF4B5716F4804F00D
:101DB00065FE86E66E4A136843F48033136002F0D2
:101DC000DFF96B4E054604E002F0DAF9401B6428A7
:101DD00020D833689A03F7D59FE6654A21691368CE
:101DE00023F0F80343EAC103136023681A077FF561
:101DF000CBAEF4E6336843F48073336002F0C0F98D
:101E000007463368D9053FF5D6AE02F0B9F9C01BD5
:101E10006428F6D9032002B0BDE8F081544D2B6848
:101E200023F480332B602B6823F480232B6002F093
:101E3000A7F9064604E002F0A3F9801B6428E9D85C
:101E40002B689B03F7D468E6494E41F28838336F1C
:101E500023F001033367336F23F00403336702F089
:101E60008FF9074604E002F08BF9C01B4045D1D83A
:101E7000336F9B07F7D4002D3FF4CDAE3C4A136C73
:101E800023F080531364C6E62B6823F001032B6014
:101E900002F076F9064604E002F072F9801B02288F
:101EA000B8D82B689907F7D423686BE6304A136FCC
:101EB00043F00103136702F063F92D4F41F28838B4
:101EC000064604E002F05CF9801B4045A2D83B6F57
:101ED0009A07F7D5002D3FF49EAECFE72B6823F08D
:101EE00080732B6002F04CF9044604E002F048F9DC
:101EF000001B02288ED82B689B01F7D4F5E6012041
:101F0000704740F25721194804F0B8FDADE642F49D
:101F100080221A601A6842F480321A604FE74FF448
:101F20001571124804F0AAFD89E640F256210F48C7
:101F300004F0A4FD8EE640F255210C4804F09EFD0D
:101F400082E642F004021A671A6F42F001021A6731
:101F5000B1E740F25A21054804F090FD8FE64FF4B6
:101F60001671024804F08AFD84E600BF7437010848
:101F700000380240002800F012810368013B0E2B5C
:101F80002DE9F04104460D4600F2D9800F2D00F2F4
:101F9000C6808F4A136803F00F03AB426FD32368E8
:101FA000980730D5590704D58A498A6842F4E05227
:101FB0008A601A0704D587498A6842F460428A60B9
:101FC000A16821F0200221F08000902A18BF00288B
:101FD00021F0400014BF01220022F0290CBF002292
:101FE00002F00102A0280CBF002202F0010222B17F
:101FF00021F01002C02A40F0D4807648826822F096
:10200000F00211438160DF0726D56368022B00F2DE
:10201000BD80704A012B126800F0B480022B00F0E2
:10202000AD80910728D56B4E41F28838B26822F016
:1020300003021343B36002F0A3F8074605E002F081
:102040009FF8C01B404500F2A880B368626803F0A7
:102050000C03B3EB820FF2D15D4A136803F00F0358
:10206000AB421AD9136823F00F032B431360136894
:1020700003F00F03AB4210D00120BDE8F0811368DC
:1020800023F00F032B431360136803F00F03AB42DD
:10209000F2D12368980785D4B5E723685A0712D58B
:1020A000E16821F4805221F40060B0F5A05F18BF10
:1020B000002A02D0B1F5C05F7BD14648826822F485
:1020C000E0520A4382601B0713D5226922F40061A3
:1020D00022F48053B1F5A05F18BF002B02D0B2F5F7
:1020E000C05F6ED13B498B6823F4604343EAC2036F
:1020F0008B6038498B6803F00C03082B25D0364BD6
:10210000344A364892683649C2F30312825C002092
:10211000D3400B6001F0EEFF0020BDE8F08140F2FB
:10212000CB21304804F0AAFC294B01201A68196819
:1021300021F00F010D431D601B68BDE8F08140F2E6
:10214000CA21284804F09AFC20E74A684B6849688D
:1021500002F03F0213F480031F48C1F3881118BF37
:102160000023A1FB0001FEF767FD1A4B5B68C3F378
:10217000014301335B00B0FBF3F3C1E790013FF58E
:1021800052AF79E796033FF54EAF75E740F2F6217F
:10219000144804F073FC63683BE703206DE70120FB
:1021A000704740F2EF210F4804F068FCA1682368F3
:1021B00023E740F233310B4804F060FCE168236808
:1021C0007BE740F23A31074804F058FC226989E77E
:1021D000003C0240003802400024F4008839010825
:1021E0000C00002074370108104908B58B6803F013
:1021F0000C03082B01D00E4808BD4A684B6849689B
:1022000002F03F0213F480030948C1F3881118BF9C
:102210000023A1FB0001FEF70FFD044B5B68C3F335
:10222000014301335B00B0FBF3F008BD003802400E
:102230000024F400044B05499B68054AC3F382233C
:102240000868D35CD8407047003802400C0000207A
:1022500098390108044B05499B68054AC3F342338A
:102260000868D35CD8407047003802400C0000205A
:1022700098390108564A03681A402DE9F04304468C
:1022800083B0002A00F0308313F001060FD0666B94
:1022900036F4000240F033834E4A916821F4000185
:1022A000916091683143B6FA86F67609916013F42D
:1022B000002514D0E56B35F4401240F056834549B3
:1022C000B5F5801FD1F88C2022F4401242EA0502B5
:1022D000C1F88C2000F00E83B5FA85F56D09DF0298
:1022E00014D5216C31F4400240F038833948B1F5FF
:1022F000800FD0F88C2022F4400242EA0102C0F89C
:102300008C2000F0FA82002908BF012513F0807F9D
:1023100018BF0126980640F19980226B2E48B2F52D
:10232000807F18BFB2F5007F22F4A02722F440314D
:1023300014BF0123002387420CBF002303F00103D5
:1023400022F4102700F5003087420CBF002303F071
:10235000010300F5802022F4881781420CBF00237E
:1023600003F0010300F5C02087420CBF002303F0F7
:10237000010300F5003081420CBF002303F001038C
:1023800000F5802081420CBF002303F0010300F51B
:10239000802081420CBF002303F001032BB122F403
:1023A00080320E4B9A4240F038840A4B0C4F1A6C24
:1023B00042F080521A641B6C03F080530193019B1E
:1023C0003B6843F480733B6001F0DAFE804610E026
:1023D000F9FFFF1D003802400003020000031C004B
:1023E0000070004001F0CCFEA0EB0800642800F271
:1023F00005823B68D905F5D5B04F236B3A6F03F4DE
:10240000407112F4407211D091420FD03A6F386F80
:1024100022F4407240F480303867386F20F4803006
:1024200038673A673A6FD20700F16F83B1F5407FA2
:1024300000F08B82A1498A6822F4F8128A609F4AD0
:10244000C3F30B03116F0B4313672368DF0610D52B
:10245000A76B37F0807240F0BA82984AD2F88C00AD
:1024600020F08070C2F88C00D2F88C103943C2F88A
:102470008C1058040FD5616E31F4803203D0B1F561
:10248000003F40F04B828D48D0F8902022F440323B
:102490000A43C0F8902019040FD5A16E31F48022B0
:1024A00003D0B1F5002F40F040828448D0F890204E
:1024B00022F440220A43C0F89020DA030FD5E16EDF
:1024C00031F4801203D0B1F5001F40F036827B4812
:1024D000D0F8902022F440120A43C0F890209F03C5
:1024E0000FD5216F31F4800203D0B1F5000F40F019
:1024F0000D827248D0F8902022F440020A43C0F8BE
:10250000902058060BD5616C032900F29A826B4823
:10251000D0F8902022F003020A43C0F89020190658
:102520000CD5A16C31F00C0240F0A9826348D0F8C0
:10253000902022F00C020A43C0F89020DA050CD556
:10254000E16C31F0300240F0A2825C48D0F890207B
:1025500022F030020A43C0F890209F050CD5216D6F
:1025600031F0C00240F09B825448D0F8902022F015
:10257000C0020A43C0F8902058050CD5616D31F4B3
:10258000407240F094824D48D0F8902022F440727E
:102590000A43C0F8902019050CD5A16D31F44062B2
:1025A00040F08D824548D0F8902022F440620A43E2
:1025B000C0F89020DA040CD5E16D31F4405240F0BF
:1025C00086823E48D0F8902022F440520A43C0F858
:1025D00090209F040CD5216E31F4404240F03982A6
:1025E0003648D0F8902022F440420A43C0F89020A8
:1025F00058020CD5A16F31F0806240F0EF812F4876
:10260000D0F8902022F080620A43C0F8902099020E
:1026100010D5E16F31F0006240F0E8812748B1F158
:10262000006FD0F8902008BF012522F000620A4315
:10263000C0F8902013F0080F18BF01255A030CD5DD
:10264000616F31F0407240F00C821C48D0F890204D
:1026500022F040720A43C0F890201F020DD5D4F832
:10266000801031F0805240F0C9811448D0F8902099
:1026700022F080520A43C0F8902058010DD5D4F8BA
:10268000841031F0005240F0C2810C48D0F8902004
:1026900022F000520A43C0F89020190110D5D4F856
:1026A000881031F0007240F0BB810448D0F88C20D3
:1026B00022F000720A43C0F88C2001E0003802408A
:1026C000DA000DD5D4F88C2032F0806340F0B1816F
:1026D000A949D1F88C3023F080631343C1F88C30C2
:1026E000012E00F08F802368B3F1007F00F08A8014
:1026F000012D03D0002003B0BDE8F0839E4D2B6870
:1027000023F080532B6001F03BFD064604E001F00E
:1027100037FD801B642871D82B689F00F7D463694C
:10272000323BB3F5BF7F00F2178223681D0300F12F
:102730000082D80226D5226C22BBA369023B0D2B56
:1027400000F25682A36A591E1F2900F249828A4A62
:10275000D2F88830D2F8880003F4403300F0E0402B
:102760000343606943EA8013A06943EA0063C2F847
:102770008830D2F88C3023F4F85343EA0123C2F8AE
:102780008C302368990204D5E26FB2F1006F00F03B
:102790000C821A0722D5E369023B052B00F21A824C
:1027A000E06A30F4403340F02982734A6569D2F818
:1027B0008810D2F8883001F0706103F440330B4385
:1027C000E16943EA851343EA0173C2F88830D2F81D
:1027D0008C3023F440330343C2F88C30664C2368BA
:1027E00043F08053236001F0CBFC054623689B0037
:1027F00080D401F0C5FC401B6428F7D9032003B046
:10280000BDE8F0835C4E336823F08063336001F0F1
:10281000B7FC074604E001F0B3FCC01B6428EDD808
:1028200033681B01F7D46368323BB3F5BF7F00F216
:1028300020812368DF0703D5626B002A00F04F81F7
:102840001E0304D5E26BB2F5801F00F09B80D80216
:1028500004D5226CB2F5800F00F09480D90114D514
:102860002769032F00F2918143496068D1F88420E1
:10287000D1F8846002F0706206F0E046324342EA2A
:10288000801242EA0742C1F884209A011AD52369CE
:10289000032B00F27481A368023B052B00F26981CF
:1028A000E268931E0D2B00F25D81236961681B04B1
:1028B00043EA8113A16843EA01732F4943EA0263A3
:1028C000C1F884302C4E336843F08063336001F0EC
:1028D00057FC074604E001F053FCC01B64288DD868
:1028E00033681B01F7D503E77421244804F0C6F8C8
:1028F0002368C9E400250126F1E4012606E57A21D2
:102900001E4804F0BBF8666B2368C5E440F21B1157
:102910001A4804F0B3F8216F2368EAE5FD2117484F
:1029200004F0ACF8616E2368ADE540F2071113487E
:1029300004F0A4F8A16E2368B7E540F211110F4826
:1029400004F09CF8E16E2368C1E50B480C498268ED
:10295000194022F4F8120A43826070E59E2107486C
:1029600004F08CF8216C2368C0E48A21034804F049
:1029700085F8E56B2368A2E400380240AC37010813
:10298000FFFCFF0FE368023B0D2B00F2DF80636A60
:10299000591E1F2900F2D280A34AD2F88430D2F8FF
:1029A000840003F4403300F0E0400343606843EAEE
:1029B0008013E06843EA0063C2F88430D2F88C30B8
:1029C00023F01F030B43C2F88C30236846E7F32142
:1029D000964804F053F8A76B23683EE540F2751162
:1029E000924804F04BF8A16F236808E640F27F118B
:1029F0008E4804F043F8E16F23680FE640F2A1111E
:102A00008A4804F03BF8D4F8801023682DE64FF490
:102A1000D671864804F032F8D4F88410236834E67E
:102A20004FF4DB71814804F029F8D4F8881023684A
:102A30003BE64FF4E0717D4804F020F8D4F88C2098
:102A400046E640F22511794804F018F8616C2368D5
:102A50005DE540F26B11754804F010F8216E2368B3
:102A6000BEE540F29711714804F008F8616F2368E1
:102A7000EBE54FF4EE716D4804F000F8D9E640F252
:102A80002F116A4803F0FAFFA16C23684EE540F26B
:102A90003911664803F0F2FFE16C236855E540F216
:102AA0004311624803F0EAFF216D23685CE540F2C0
:102AB0004D115E4803F0E2FF616D236863E540F26B
:102AC00057115A4803F0DAFFA16D23686AE540F216
:102AD0006111564803F0D2FFE16D236871E5A768E4
:102AE000BA1E052A59D850496068D1F88420D1F817
:102AF000846002F4403206F07066324342EA80128B
:102B000042EA0772C1F884209AE601F039FB41F2EB
:102B10008839804606E001F033FBA0EB0800484509
:102B20003FF66CAE3B6F9B07F5D5236B03F440710A
:102B30007CE4E26B002A3FF400AEFAE54FF4FA7150
:102B40003A4803F09BFF636A591E25E74FF4F97179
:102B5000364803F093FF1AE740F24621334803F06A
:102B60008DFFE2E54FF40671304803F087FFE2681D
:102B70009BE640F217212D4803F080FF90E640F2DB
:102B800016212A4803F07AFF85E640F207212748FC
:102B900003F074FF2769236866E64FF4F171234858
:102BA00003F06CFFA76823689DE7206A03282CD8F0
:102BB0001D49D1F88820D1F8885002F0706205F0E4
:102BC000E0452A43656942EA851242EA0042C1F8BB
:102BD0008820DEE540F27121144803F04FFFDFE565
:102BE00040F24F21114803F049FFA36A591EAEE598
:102BF00040F24D210D4803F041FFA3E50B4840F2A0
:102C0000722103F03BFFE06ACFE5084840F2622101
:102C100003F034FF206A2368CAE7B921034803F0B0
:102C20002DFFFFF7C2BB00BF00380240AC370108E0
:102C3000B54BB64A904218BF98422DE9F04F18BFE5
:102C4000012385B008BF002306468846019326D09D
:102C5000AF4B984223D003F5806398421FD003F511
:102C6000806398421BD003F58063984217D003F528
:102C70008063984213D003F5806398420FD002F529
:102C8000005203F50063904218BF984207D003F545
:102C90008063984203D0B1219E4803F0EFFEB8F85C
:102CA0000030002B00F00C81D8F804209A4B9B4890
:102CB00022F400119A4218BF032A8CBF012300237B
:102CC00082420CBF002303F00103113A012A94BF92
:102CD000002303F00103924A91420CBF002303F04A
:102CE00001031BB18F4B994240F03281D8F8083074
:102CF000022B00F2EA800024DFF850B203E0013436
:102D0000102C00F0BC800125D8F80030A54005EA61
:102D1000030A35EA0303F2D1D8F8043023F0100097
:102D2000022814D1D8F810100F2900F2B980E70852
:102D300004F007024FF00F0C920006EB870791405A
:102D40000CFA02FC3A6A22EA0C020A433A624FEA9F
:102D5000440903273168013807FA09F7012821EAF5
:102D6000070C03F003016FEA070701FA09F141EAD2
:102D70000C01316012D8D8F80C10032900F28280BF
:102D8000B06801FA09F138400143B160C3F30011A2
:102D90007068A14020EA05050D437560F168DA000E
:102DA00007EA0107D8F8081001FA09F141EA07011A
:102DB000F160A4D5DBF8441024F0030204F003050D
:102DC00041F48041AD00CBF84410DBF8441001F42D
:102DD000804103915449039811440F228868AA4006
:102DE00020EA02024948864220D00198002852D0A9
:102DF000474886425FD04D4886426BD04C48864259
:102E00006DD04C48864274D04B48864276D04B48B1
:102E1000864269D04A48864200F09F8049488642EF
:102E20000CBF09200A2000FA05F52A438A60DF0357
:102E3000454A6FEA0A01444804F10104126854BF8C
:102E40000A404AEA02029D03026042683E4854BFBB
:102E50000A404AEA020242608268D8023A4854BFF5
:102E60000A404AEA02029B028260C26854BF1140D3
:102E70004AEA0201344A102CD1607FF444AF05B015
:102E8000BDE8F08FD921234803F0F8FDD8F80C10E5
:102E9000D8F8043074E7012000FA05F52A43C5E7A5
:102EA000C5211C4803F0EAFDD8F80430D8F810100A
:102EB00023F010003BE7022000FA05F52A43B5E7AE
:102EC000B221144803F0DAFDEEE6B421114803F014
:102ED000D5FD10E7032000FA05F52A43A6E70420F4
:102EE00000FA05F52A43A1E7072000FA05F52A4371
:102EF0009CE7052000FA05F52A4397E7062000FA2B
:102F000005F52A4392E700BF00040240000002409A
:102F100000080240E43701080000211000002210E0
:102F2000000011100000121000380140000C024097
:102F3000001002400014024000180240001C024031
:102F40000020024000240240003C014000380240C2
:102F5000B321044803F092FDC8E6082000FA05F505
:102F60002A4363E7E437010838B505460C4629B122
:102F70002B691C4214BF0120002038BD4FF4BD71E5
:102F8000014803F07BFDF3E7E437010870B506461E
:102F90000C46154661B1012D03D805B92404B4616E
:102FA00070BD40F29B11054803F068FDB46170BD2F
:102FB0004FF4CD71014803F061FDECE7E4370108FF
:102FC00038B5044601F0DCF8002C00F0428122689C
:102FD0000546A14BA1499A4218BF8A4201F1180146
:102FE00014BF012300238A420CBF002303F0010316
:102FF00018318A420CBF002303F0010318318A42C2
:103000000CBF002303F0010318318A420CBF0023D8
:1030100003F0010318318A420CBF002303F00103BF
:1030200018318A420CBF002303F0010301F55671E9
:103030008A420CBF002303F0010318318A420CBFFF
:10304000002303F0010318318A420CBF002303F070
:10305000010318318A420CBF002303F00103183129
:103060008A420CBF002303F0010318318A420CBFCF
:10307000002303F0010318318A420CBF002303F040
:1030800001031BB1764B9A4240F02981636823F01B
:10309000C063B3F1006F18BF002B14BF01220022E0
:1030A000B3F1805F0CBF002202F001021AB1B3F14C
:1030B000C05F40F01981A36833F0400202D0802B3A
:1030C00040F0A980E36833F4007340F0AD802369D9
:1030D00033F4806340F0B180636933F4006203D05D
:1030E000B3F5805F40F09280A36933F4005203D0BF
:1030F000B3F5804F40F08580E36933F0200202D0C1
:10310000B3F5807F70D1236A33F4403374D1636A9E
:1031100033F0040260D1002B4ED12368022200213B
:1031200084F8352084F834101A6822F001021A60FD
:1031300006E001F025F8401B052800F28380236893
:103140001A68D107F5D4D4E90125E1682A43A069BA
:103150001D680A4321690A4361690A43E169024320
:103160000A4340492940256A2A430A43616A0429DF
:1031700000F082801A605A6922F007021143DAB225
:1031800059613949103A3948A1FB02515F2A384A3E
:103190004FEA111102EA03024FF03F03415C4FF086
:1031A000000088BF04328B40E165A2659360012373
:1031B000606584F8353038BDA36A032B7ED8E36A96
:1031C00033F0C0737FD1236B33F4C003A5D0C92182
:1031D000284803F053FCA0E7C221264803F04EFC28
:1031E000636A002B99D0E7E7C021224803F046FC30
:1031F000236A33F440338AD0C1211E4803F03EFCD9
:1032000085E7BF211B4803F039FC75E7BE2119484B
:1032100003F034FC68E7BB21164803F02FFCE36899
:1032200033F400733FF453AFBC21124803F026FC83
:10323000236933F480633FF44FAFBD210D4803F0A1
:103240001DFC49E7032320221846626584F83530C7
:1032500038BD012038BD00BF106002402860024028
:10326000B86402403F8010E0ABAAAAAA5438010813
:1032700000FCFFFF1C380108D4E90B5129430A4325
:103280001A605969A26A21F00701114341F0040153
:10329000002D3FF474AFD8B1B0F5005F2ED0022AF4
:1032A00005D9032A7FF46BAFEA017FF568AF0123EC
:1032B00040221846626584F8353038BDC72116486B
:1032C00003F0DCFB7BE7C821134803F0D7FB7AE768
:1032D000012A0ED032F002027FF451AFE4E7B921A7
:1032E0000D4803F0CBFBD1E6BA210B4803F0C6FB37
:1032F000E1E6B5F1C07F7FF442AFD8E7032A3FF69D
:103300003EAF01A050F822F0AF320008A932000809
:10331000AF320008F33200081C3801082DE9F843E9
:103320001E460446D0F85890581E4FF6FE73884645
:10333000174698423BD894F83430012B40D00123F3
:1033400084F8343094F83530012B05D00023022066
:1033500084F83430BDE8F8830223256884F83530DA
:10336000002363652B6823F480232B60A3686E60C1
:10337000402B28D0C5F80880EF60E16D3F23226C18
:103380008B40C9F808302B6843F016032B606B693B
:1033900043F080036B611AB12B6843F008032B6084
:1033A0002B68002043F001032B60BDE8F88340F256
:1033B000CD11074803F062FB94F83430012BBED1E5
:1033C0000220BDE8F883AF60C5F80C80D5E700BFE8
:1033D0001C38010890F835200346022A03D08022C9
:1033E00001205A65704702680521002083F83510D6
:1033F000136823F001031360704700BF2DE9F0410B
:103400000022744B82B080461D6801920822D0E9E8
:10341000166334689A40224204D001680F68780726
:1034200000F1AB8001229A40224205D0D8F800106A
:103430004969090600F1998004229A40224205D088
:10344000D8F8001009688F0700F1878010229A4091
:10345000224204D0D8F800100F68380768D4202220
:103460009A40224217D0D8F800100C68E00612D516
:10347000B26098F83520052A39D00B6813F4802FF4
:103480000B6800F08D80190340F19880D8F83C302B
:103490000BB140469847D8F85430002B45D0D8F8A7
:1034A0005430DA071BD5D8F8002005234A4988F89C
:1034B00035301368A1FB051523F00103AD0A136035
:1034C00002E01368DB0704D5019B0133AB42019393
:1034D000F7D90022012388F8342088F83530D8F84D
:1034E0004C3013B3404602B0BDE8F04118470A68BB
:1034F00022F016020A604A6922F080024A61D8F876
:103500004020002A60D00A6822F008020A603F22A8
:10351000002102FA03F30122B360D8F8503088F892
:10352000341088F83520002BDCD102B0BDE8F081E2
:10353000B2600A6812F4802F0A682AD1D70503D432
:103540000A6822F008020A60D8F84020002A86D0D3
:1035500040469047D8F85C3081E7B260D8F85420F4
:1035600042F00402C8F8542070E7B260D8F8542042
:1035700042F00202C8F854205EE70F6827F0040703
:103580000F60B260D8F8542042F00102C8F854200D
:1035900048E71203D8D5D8F84820002AD8D15EE7EA
:1035A00013F480737FF472AF0A6822F010020A608D
:1035B000012288F8343088F8352067E7D8F844309D
:1035C000002B7FF466AF66E7D8F84820002A9AD12E
:1035D0009DE700BF0C000020B5814E1B2DE9F8438C
:1035E000089F04464FF6FE7088467D1E91461E4693
:1035F00085425FD8A068802863D094F83430012BCE
:1036000000F09080012384F8343094F83530012B99
:1036100005D00023022084F83430BDE8F88302236B
:103620002568402884F835304FF0000363652B6827
:1036300043F480232B602E616F606AD0C5F8088048
:10364000C5F80C90934B9D4241D9483B9249934A0F
:103650009D4218BF8D4214BF0123002395420CBF29
:10366000002303F001031BB18D4B9D4240F02E81DE
:103670008C4B20211022D9600821DA600422D96005
:10368000DA600122874BDA602B68226C43F0160364
:103690002B606B6943F080036B61002A3ED02B687E
:1036A00043F008032B602B68002043F001032B60DC
:1036B000BDE8F8837C48A22103F0E0F9A0688028E7
:1036C0009BD14FF4807301206365BDE8F883774B8D
:1036D0009D4229D9A83B7649704A9D4218BF8D4228
:1036E00014BF0123002395420CBF002303F0010304
:1036F00013B16B4B9D425AD16A4B20211022996025
:1037000008219A60042299609A600123654A9360B7
:10371000BAE7C5F80890C5F80C8093E7A36C002BB6
:10372000BDD1C0E7022078E7624B9D421FD9483BDC
:103730005F495A4A9D4218BF8D4214BF012300239E
:1037400095420CBF002303F001031BB1544B9D4273
:1037500040F05281584B20211022D9600821DA60B4
:103760000422D960DA600123534AD3608CE7504BBE
:1037700049494A4A9D4218BF8D4214BF0123002384
:1037800095420CBF002303F001031BB1444B9D4243
:1037900040F0BE80484B20211022996008219A6099
:1037A000042299609A600123434A93606CE7483B86
:1037B000A1F57A7118329D4218BF8D4214BF0123C2
:1037C000002395420CBF002303F001031BB13B4BC8
:1037D0009D4240F010824FF40061394B3948314A24
:1037E0009D4218BF85429160A2F55E7214BF01230D
:1037F000002395420CBF002303F001031BB12F4BA4
:103800009D4240F012824FF480622D4B2D48254995
:103810009D4218BF85428A6014BF012300232A4AB3
:1038200095420CBF002303F001031BB1234B9D42C3
:1038300040F02B824FF40072224B214819499D42DF
:1038400018BF85428A6014BF012300231E4A954297
:103850000CBF002303F001031BB1184B9D4240F045
:10386000FC814FF48072174B15480E499D4218BFDA
:1038700085428A6014BF01230023134A95420CBF7E
:10388000002303F001031BB10C4B9D4240F0158255
:1038900040233BE7586402401060024070600240E1
:1038A00070640240006402405C380108B860024065
:1038B0001064024058600240006002408864024088
:1038C000286002402864024088600240483B18316A
:1038D00018329D4218BF8D4214BF01230023954228
:1038E0000CBF002303F001031BB17D4B9D4240F050
:1038F00003817C4B4FF400614FF48062D9604FF438
:103900000071DA604FF48072D960DA604022B9E663
:10391000A3F5896301F5836118329D4218BF8D427A
:1039200014BF0123002395420CBF002303F00103C1
:103930001BB16B4B9D4240F0D8814FF400616A4B44
:103940006A486B4A9D4218BF8542916002F1880225
:1039500014BF0123002395420CBF002303F0010391
:103960001BB15F4B9D4240F0D9814FF480625E4BAA
:103970005E485F499D4218BF85428A6014BF01239B
:1039800000235C4A95420CBF002303F001031BB1E6
:10399000534B9D4240F02C824FF40072534B5248DF
:1039A00053499D4218BF85428A6014BF01230023FA
:1039B000504A95420CBF002303F001031BB1484B52
:1039C0009D4240F0DB814FF48072474B47484849A5
:1039D0009D4218BF85428A6014BF01230023454AD7
:1039E00095420CBF002303F001031BB13C4B9D42E9
:1039F00040F02D824023D7E6483BA1F57A7118327A
:103A00009D4218BF8D4214BF0123002395420CBF75
:103A1000002303F001031BB1314B9D4240F0D081E4
:103A20004FF40061314B3048314A9D4218BF854206
:103A3000D16002F1880214BF0123002395420CBF1C
:103A4000002303F001031BB1254B9D4240F07E8112
:103A50004FF48062244B254825499D4218BF85427A
:103A6000CA6014BF01230023224A95420CBF0023E1
:103A700003F001031BB11A4B9D4240F0FE814FF44D
:103A800000721A4B18481A499D4218BF8542CA60F5
:103A900014BF01230023174A95420CBF002303F0F3
:103AA00001031BB10E4B9D4240F0BA814FF480726E
:103AB0000E4B0D480E499D4218BF8542CA6014BF87
:103AC000012300230B4A95420CBF002303F001039E
:103AD0001BB1034B9D4240F0E681402344E600BF0A
:103AE000886402400064024028640240286002406A
:103AF0000060024088600240A3F5896301F583619C
:103B000018329D4218BF8D4214BF012300239542F5
:103B10000CBF002303F00103002B00F0E681A34B50
:103B20009D4200F0E2814FF00061A14BA148A24A02
:103B30009D4218BF8542D160A2F5587214BF01237F
:103B4000002395420CBF002303F00103002B00F07B
:103B5000C981964B9D4200F0C5814FF08062944B25
:103B6000944895499D4218BF8542CA6014BF0123FD
:103B70000023924A95420CBF002303F00103002B5F
:103B800000F0AD81894B9D4200F0A9814FF0007299
:103B9000874B884888499D4218BF8542CA6014BF38
:103BA00001230023854A95420CBF002303F0010343
:103BB000002B00F091817D4B9D4200F08D814FF0F4
:103BC00080727B4B7B487C499D4218BF8542CA600E
:103BD00014BF01230023794A95420CBF002303F050
:103BE0000103002B00F07481704B9D4200F0708146
:103BF0004FF4800246E5A3F5896301F5836118322D
:103C00009D4218BF8D4214BF0123002395420CBF73
:103C1000002303F00103002B00F06D81634B9D42F4
:103C200000F069814FF00061D7E5624B6049634A5B
:103C30009D4218BF8D4214BF0123002395420CBF43
:103C4000002303F00103002B00F05B81574B9D42E2
:103C500000F057814FF08062D7E5554B5549574AE0
:103C60009D4218BF8D4214BF0123002395420CBF13
:103C7000002303F00103002B00F040814B4B9D42D9
:103C800000F03C814FF08072EDE5494B49494B4AC9
:103C90009D4218BF8D4214BF0123002395420CBFE3
:103CA000002303F00103002B00F02E813F4B9D42C7
:103CB00000F02A814FF00072BEE53D4B3D493F4A7E
:103CC0009D4218BF8D4214BF0123002395420CBFB3
:103CD000002303F00103002B00F00A81334B9D42C7
:103CE00000F006814FF4800310E5483BA1F57A719E
:103CF00018329D4218BF8D4214BF01230023954204
:103D00000CBF002303F00103002B00F01281274BAE
:103D10009D4200F00E814FF0006110E6244B2549D2
:103D2000264A9D4218BF8D4214BF012300239542AD
:103D30000CBF002303F00103002B00F0EE801B4BAF
:103D40009D4200F0EA804FF0806210E6194B18495E
:103D50001A4A9D4218BF8D4214BF01230023954289
:103D60000CBF002303F00103002B00F0E8800F4B91
:103D70009D4200F0E4804FF080626BE60D4B0C49F1
:103D80000E4A9D4218BF8D4214BF01230023954265
:103D90000CBF002303F00103002B00F0BB80034B9A
:103DA0009D4200F0B7804FF080720EE6A0640240A2
:103DB000406002404064024000640240A060024053
:103DC000483B183118329D4218BF8D4214BF012361
:103DD000002395420CBF002303F00103002B00F0E9
:103DE000AB805A4B9D4200F0A7804FF0006119E66E
:103DF000574B5849584A9D4218BF8D4214BF012362
:103E0000002395420CBF002303F00103002B00F0B8
:103E10008A804E4B9D4200F086804FF00072BDE5D7
:103E20004C4B4B494C4A9D4218BF8D4214BF012355
:103E3000002395420CBF002303F00103002B00F088
:103E40008180424B9D427DD04FF0807230E6404BE6
:103E50004049414A9D4218BF8D4214BF01230023AF
:103E600095420CBF002303F00103002B58D0374BC1
:103E70009D4255D04FF4800396E4354B3549364A80
:103E80009D4218BF8D4214BF0123002395420CBFF1
:103E9000002303F00103002B48D02C4B9D4245D05A
:103EA0004FF00072EDE52A4B2A492B4A9D4218BF7C
:103EB0008D4214BF0123002395420CBF002303F061
:103EC000010323B3214B9D4221D04FF480034BE4E7
:103ED0004FF48032FFF7D6BB4FF4802271E64FF4E7
:103EE000002255E64FF4801239E64FF400111CE62B
:103EF0004FF480330AE44FF400116EE44FF4802253
:103F0000B1E44FF4801280E44FF4002294E44FF4C3
:103F1000803329E44FF4802257E54FF4801226E5E0
:103F20004FF4803340E44FF4002237E54FF4002291
:103F3000A7E54FF4001102E54FF4001172E54FF4CC
:103F4000801287E54FF48022B2E500BFA0640240F2
:103F50004060024040640240A06002401A4B1A6C6C
:103F600042F0805230B51A6483B01B6C174C03F0DA
:103F700080530193019B236843F48033236000F056
:103F8000FFF8054605E000F0FBF8401BB0F57A7F2E
:103F900017D86368DA03F6D523680C4D43F4003371
:103FA000236000F0EDF8044605E000F0E9F8001B9E
:103FB000B0F57A7F05D86B689B03F6D5002003B077
:103FC00030BD032003B030BD003802400070004017
:103FD000C31E042B10B504460CD8094924024FF621
:103FE000FF00084BCA6804F4E06402401443234312
:103FF000CB6010BD9221044802F040FDEDE700BF08
:1040000000ED00E00000FA05943801080F2A70B5B1
:10401000164605460C4636D80F2C2FD81C4BDB68AD
:10402000C3F30223C3F107001A1D042828BF04208C
:10403000062A18D9033B4FF0FF329A4026EA0206BF
:104040004FF0FF31002D01FA00F124EA010404FAD7
:1040500003F444EA060409DB24010E4BE4B22B44CA
:1040600083F8004370BD00263346E9E705F00F05ED
:104070002401094BE4B22B441C7670BDAB210748E8
:1040800002F0FCFCCAE7AA21044802F0F7FCC3E7EF
:1040900000ED00E000E100E0FCEC00E094380108F5
:1040A000002808DB00F01F0101234009044A8B406F
:1040B00042F820307047BE21024802F0DFBC00BF4A
:1040C00000E100E094380108431EB3F1807F0CD278
:1040D0004FF0E022002006494FF0F00C5361072317
:1040E00081F823C09061136170470120704700BFC1
:1040F00000ED00E00E494FF47A730E4A10B50978CE
:1041000004461268B3FBF1F3B2FBF3F0FFF7DCFFF8
:1041100008B90F2C01D9012010BD002221464FF013
:10412000FF30FFF773FF044B00201C6010BD00BF81
:10413000040000200C0000200800002008B5094BF6
:1041400003201A6842F400721A601A6842F48072FE
:104150001A60FFF73DFF0020FFF7CCFFFDF77CF969
:10416000002008BD003C0240034A044B11681B7844
:104170000B441360704700BFBC0D002004000020FA
:10418000014B1868704700BFBC0D0020036A23F084
:1041900001032DE9F04103620446056A0E46D0F89A
:1041A0000480274B25F0020582690F6813401F43E6
:1041B0008B681D43234B98420BD003F580639842D4
:1041C00007D07268C4F80480A76162632562BDE805
:1041D000F081F36833F0080220D125F008051D4373
:1041E000B36933F4007325F004051ED1736933F409
:1041F000807206D128F44072B1690A4342EA03088A
:10420000DFE741F28471104802F038FC28F4407274
:10421000B16973690A4342EA0308D2E741F2767151
:10422000094802F02BFCF368D7E741F28371064896
:1042300002F024FC736933F48072DBD0E1E700BF45
:104240008CFFFEFF00000140CC380108036A23F414
:1042500080732DE9F04103620446056A0E46D0F8EA
:104260000480294B25F40075C2690F6813401F4371
:104270008B6845EA0325254B98420BD003F58063F4
:10428000984207D07268C4F80480E761E26325624F
:10429000BDE8F081F36833F0080223D125F400650E
:1042A00045EA0325B36933F4007325F4806520D112
:1042B000736933F4807207D128F44052B16942EA3D
:1042C000011242EA0318DDE741F61A01104802F034
:1042D000D5FB28F44052B169736942EA011242EAFF
:1042E0000318CFE741F60C01094802F0C7FBF36859
:1042F000D4E741F61901064802F0C0FB736933F4B4
:104300008072D9D0E0E700BF8CFFFEFF00000140C3
:10431000CC380108002800F0138102688D4B8E49CB
:104320009A4218BFB2F1804F70B514BF0123002329
:1043300004468A4882420CBF002303F0010300F5C3
:1043400000608A420CBF002303F0010301F5006105
:1043500082420CBF002303F0010300F500608A4293
:104360000CBF002303F0010301F5744182420CBF2E
:10437000002303F0010300F596308A420CBF0023AE
:1043800003F0010301F5804182420CBF002303F0DA
:10439000010300F500608A420CBF002303F0010313
:1043A000A1F5963182420CBF002303F001038A423B
:1043B0000CBF002303F0010301F580618A420CBFAA
:1043C000002303F001031BB1654B9A4240F0BC800F
:1043D000A36823F0400123F01002202918BF002A0F
:1043E00002D0402B40F09C80236933F4807202D0CD
:1043F000B3F5007F6DD1A36933F0800372D194F8D7
:104400003D3003F0FF02002B77D022680223514990
:10441000B2F1804F84F83D30A2EB01011368B1FA8C
:1044200081F14FEA511136D0002934D14B4D4A4821
:10443000824218BFAA4269D005F5803500F5806038
:10444000551B8242B5FA85F54FEA55156ED0002D01
:104450006CD1444D4448824218BFAA420CBF01258A
:1044600000256FD0414EA0F59630824218BFB2426F
:104470001AD000F58060824264D000F580608242EC
:1044800060D0A06923F08003E16803431360636890
:10449000D162936217E0364D23F07003A068551B7C
:1044A0000343B5FA85F56D09206923F4407303438E
:1044B000A06923F0800303431360E368D362636859
:1044C000936201BBFDB901230020536184F83D30A4
:1044D00070BD40F20F11274802F0D0FAA36933F003
:1044E00080038CD04FF48871224802F0C7FA94F808
:1044F0003D3003F0FF02002B87D1204684F83C209A
:10450000FCF73CFF81E763691363DCE7184D23F098
:104510007003A068551B0343B5FA85F56D09C3E721
:104520004FF48771134802F0A9FA5DE7A06823F001
:104530007003034310488242B6D0002DB4D188E7FF
:10454000012070470025AFE740F20D11094802F045
:1045500095FA3DE7000001400008004000040040DB
:10456000002000400040014000440140004801405C
:1045700000040140CC380108000C0040704700BF27
:10458000002800F0138102688D4B8E499A4218BFB3
:10459000B2F1804F70B514BF0123002304468A484E
:1045A00082420CBF002303F0010300F500608A4241
:1045B0000CBF002303F0010301F5006182420CBF30
:1045C000002303F0010300F500608A420CBF0023C2
:1045D00003F0010301F5744182420CBF002303F094
:1045E000010300F596308A420CBF002303F001035B
:1045F00001F5804182420CBF002303F0010300F566
:1046000000608A420CBF002303F00103A1F596313C
:1046100082420CBF002303F001038A420CBF002337
:1046200003F0010301F580618A420CBF002303F00F
:1046300001031BB1654B9A4240F0BC80A36823F094
:10464000400123F01002202918BF002A02D0402B7D
:1046500040F09C80236933F4807202D0B3F5007F70
:104660006DD1A36933F0800372D194F83D3003F02B
:10467000FF02002B77D0226802235149B2F1804F0C
:1046800084F83D30A2EB01011368B1FA81F14FEAE1
:10469000511136D0002934D14B4D4A48824218BFBF
:1046A000AA4269D005F5803500F58060551B82422D
:1046B000B5FA85F54FEA55156ED0002D6CD1444DF5
:1046C0004448824218BFAA420CBF012500256FD082
:1046D000414EA0F59630824218BFB2421AD000F582
:1046E0008060824264D000F58060824260D0A06920
:1046F00023F08003E168034313606368D16293622F
:1047000017E0364D23F07003A068551B0343B5FA3C
:1047100085F56D09206923F440730343A06923F0F4
:10472000800303431360E368D3626368936201BB51
:10473000FDB901230020536184F83D3070BD40F283
:104740005B21274802F09AF9A36933F080038CD0EB
:104750004FF41771224802F091F994F83D3003F0BC
:10476000FF02002B87D1204684F83C20FFF706FF8C
:1047700081E763691363DCE7184D23F07003A068D9
:10478000551B0343B5FA85F56D09C3E740F25A217D
:10479000134802F073F95DE7A06823F07003034348
:1047A00010488242B6D0002DB4D188E7012070476E
:1047B0000025AFE740F25921094802F05FF93DE7D3
:1047C00000000140000800400004004000200040BC
:1047D0000040014000440140004801400004014005
:1047E000CC380108000C0040F8B55A4B0746046865
:1047F0000D469C4200F08580B4F1804F61D0564B4D
:104800009C425ED0554B9C425BD0554B9C4258D04D
:10481000544B9C4200F08A80534B9C420BD0534B2C
:104820009C4200F08A80524B9C4200F08680514BA3
:104830009C4240F0858035F0040345D14A4B9C42B0
:1048400018D003F580639C4214D003F580639C422A
:1048500010D0A3F598339C420CD003F580639C42A2
:1048600008D003F580639C4204D041F6AD21424854
:1048700002F004F9142D4AD93C2D4CD1012305F046
:104880001F05266A03FA05F53A68324B26EA050643
:104890009A422662216A45EA0105256241D003F564
:1048A00080639A423DD09168344B0B40062B06D072
:1048B000B3F5803F03D0136843F001031360002079
:1048C000F8BD35F00C03D5D040F2D3212A4802F0D0
:1048D000D5F83C681F4B9C42CCD0B4F1804FC9D076
:1048E000A3F57C439C42C5D003F580639C42C1D0B4
:1048F00003F580639C42BDD003F578439C42B9D058
:104900009CE71429E0D81E4BCB40D907DCD51C4BC3
:10491000EB40DB07B2D441F6AE21174802F0AEF807
:10492000ACE7536C43F400435364BCE71429CBD881
:10493000134BCB40DA079DD4C6E7002DC4D17DE7E9
:10494000104B9C42F9D0104B9C42BDD10029BBD1E9
:104950001C4673E7000001400004004000080040CE
:10496000000C0040000401400040014000440140B0
:104970000048014000180040CC3801080700010041
:1049800011111100001C004000200040704700BFC2
:10499000002800F0138102688D4B8E499A4218BF9F
:1049A000B2F1804F70B514BF0123002304468A483A
:1049B00082420CBF002303F0010300F500608A422D
:1049C0000CBF002303F0010301F5006182420CBF1C
:1049D000002303F0010300F500608A420CBF0023AE
:1049E00003F0010301F5744182420CBF002303F080
:1049F000010300F596308A420CBF002303F0010347
:104A000001F5804182420CBF002303F0010300F551
:104A100000608A420CBF002303F00103A1F5963128
:104A200082420CBF002303F001038A420CBF002323
:104A300003F0010301F580618A420CBF002303F0FB
:104A400001031BB1654B9A4240F0BC80A36823F080
:104A5000400123F01002202918BF002A02D0402B69
:104A600040F09C80236933F4807202D0B3F5007F5C
:104A70006DD1A36933F0800372D194F83D3003F017
:104A8000FF02002B77D0226802235149B2F1804FF8
:104A900084F83D30A2EB01011368B1FA81F14FEACD
:104AA000511136D0002934D14B4D4A48824218BFAB
:104AB000AA4269D005F5803500F58060551B824219
:104AC000B5FA85F54FEA55156ED0002D6CD1444DE1
:104AD0004448824218BFAA420CBF012500256FD06E
:104AE000414EA0F59630824218BFB2421AD000F56E
:104AF0008060824264D000F58060824260D0A0690C
:104B000023F08003E168034313606368D16293621A
:104B100017E0364D23F07003A068551B0343B5FA28
:104B200085F56D09206923F440730343A06923F0E0
:104B3000800303431360E368D3626368936201BB3D
:104B4000FDB901230020536184F83D3070BD40F26F
:104B50009C41274801F092FFA36933F080038CD079
:104B600040F29D41224801F089FF94F83D3003F066
:104B7000FF02002B87D1204684F83C20FFF706FF78
:104B800081E763691363DCE7184D23F07003A068C5
:104B9000551B0343B5FA85F56D09C3E740F29B4108
:104BA000134801F06BFF5DE7A06823F07003034337
:104BB00010488242B6D0002DB4D188E7012070475A
:104BC0000025AFE740F29A41094801F057FF3DE761
:104BD00000000140000800400004004000200040A8
:104BE00000400140004401400048014000040140F1
:104BF000CC380108000C004090F83C30012B00F04C
:104C00004E810122022370B580F83C200D4680F8C9
:104C10003D3004460B68B3F5805F18BFB3F5005F05
:104C200014BF0122002233F0300102F0010208BF5C
:104C3000002212B1402940F069822268602B994914
:104C4000906801EA0001916000F0368154D8402B51
:104C500000F0DA8140F2EF80502B45D1924B93491E
:104C60009A4218BFB2F1804F14BF012300238A4239
:104C70000CBF002303F0010301F580618A420CBFE1
:104C8000002303F0010301F580618A420CBF002379
:104C900003F001031BB1864B9A4240F025826B68FA
:104CA000B3F5004F18BF0A2B03D033F0020340F0D6
:104CB0000182EE680F2E00F23E8223686968186A4E
:104CC00020F00A000143186A20F0010018629A6976
:104CD00022F0F00242EA06129A6119629A6822F002
:104CE000700242F057029A6000230122184684F8AD
:104CF0003D2084F83C3070BDB3F5805F00F0248126
:104D0000B3F5005F43D1684B68499A4218BFB2F1CE
:104D1000804F14BF012300238A420CBF002303F0FD
:104D2000010301F580618A420CBF002303F00103F7
:104D300001F580618A420CBF002303F001031BB11F
:104D40005B4B9A4240F0C281AB6833F4405340F071
:104D500007826B68B3F5004F18BF0A2B03D033F0FE
:104D6000020340F0A181E8680F2800F2EB8122687D
:104D7000D5E9015391682B4321F47F410B4343EA6A
:104D800000239360936843F480439360ACE7702BF7
:104D9000AAD1454B45499A4218BFB2F1804F14BF82
:104DA000012300238A420CBF002303F0010301F515
:104DB00080618A420CBF002303F0010301F580618A
:104DC0008A420CBF002303F0010301F578418A42B7
:104DD0000CBF002303F0010301F570518A420CBFA0
:104DE000002303F001031BB1324B9A4240F0C4810F
:104DF000AB6833F4405340F0B9816B68B3F5004FB2
:104E000018BF0A2B03D033F0020340F05981E86841
:104E10000F2800F282812268D5E9015391682B4363
:104E200021F47F410B4343EA00239360936843F0EE
:104E30007703936058E7202B03D02BD9302B7FF4D6
:104E400053AF194919488A4218BFB2F1804F14BFB5
:104E50000121002182420CBF002101F0010100F577
:104E6000806082420CBF002101F0010100F58060EA
:104E700082420CBF002101F0010119B10C498A42A4
:104E800040F02A81916821F070010B4343F0070341
:104E9000936029E733F010017FF426AFD1E70220B9
:104EA000704700BF8800FEFF000001400004004082
:104EB0000004014000180040B24BB3499A4218BFA9
:104EC000B2F1804F14BF012300238A420CBF00239C
:104ED00003F0010301F580618A420CBF002303F057
:104EE000010301F580618A420CBF002303F0010336
:104EF0001BB1A64B9A4240F003816B68B3F5004F9B
:104F000018BF0A2B03D033F0020340F0C780EE68CD
:104F10000F2E00F2098123686D68186A20F01000D6
:104F2000186299691A6A21F4704122F0A00241EADC
:104F3000063142EA051299611A629A6822F07002FB
:104F400042F067029A60CFE68E4B8F489A4218BFB4
:104F5000B2F1804F8E4914BF0123002382420CBF5F
:104F6000002303F0010300F500608A420CBF002318
:104F700003F0010301F5006182420CBF002303F03E
:104F8000010300F500608A420CBF002303F0010317
:104F900001F5744182420CBF002303F0010300F5C8
:104FA00096308A420CBF002303F0010301F58041D3
:104FB00082420CBF002303F0010300F500608A4227
:104FC0000CBF002303F00103A1F5963182420CBF10
:104FD000002303F001038A420CBF002303F0010306
:104FE00001F580618A420CBF002303F00103002B0E
:104FF0003FF47AAE674B9A423FF476AE41F202211B
:10500000654801F03BFD6FE65E4B5F499A4218BF71
:10501000B2F1804F14BF012300238A420CBF00234A
:1050200003F0010301F580618A420CBF002303F005
:10503000010301F580618A420CBF002303F00103E4
:1050400013B1524B9A4255D16B68B3F5004F18BF5C
:105050000A2B02D033F002031AD1EE680F2E78D853
:1050600023686968186A20F00A000143186A20F072
:10507000010018629A6922F0F00242EA06129A616F
:1050800019629A6822F0700242F047029A602BE699
:1050900041F25821404801F0F1FCDEE741F248219D
:1050A0003D4801F0EBFC32E741F225213A4801F09E
:1050B000E5FC58E641F23821374801F0DFFCF8E51D
:1050C00041F20D21344801F0D9FCA0E641F2212142
:1050D000314801F0D3FC37E641F268212E4801F057
:1050E000CDFC22682B68CDE641F235212A4801F03B
:1050F000C5FCD4E541F25521274801F0BFFCA3E7E8
:1051000041F24521244801F0B9FCF6E641F2F611DE
:10511000214801F0B3FC2B688FE51F4841F20E21B6
:1051200001F0ACFCE86876E641F249211A4801F04A
:10513000A5FCEE68EFE641F23921174801F09EFC2C
:10514000EE68BAE5144841F2262101F097FCE868C0
:105150000DE641F25921104801F090FCEE687FE71E
:1051600041F224210C4801F089FCF2E541F20C21C6
:10517000094801F083FC40E641F20921064801F0AC
:105180007DFC35E6000001400004004000040140C1
:105190000008004000200040CC380108704700BFE4
:1051A000704700BF704700BF704700BF704700BF27
:1051B00003681A69910710B5044602D5DA689207A8
:1051C00068D41A69520702D5DA6850074FD41A69B1
:1051D000110702D5DA68120737D41A69D00602D54A
:1051E000DA68D1061ED41A69D20702D5DA68D00768
:1051F00069D41A69110602D5DA6812066BD41A69E5
:10520000D00502D5DA6811066DD41A69520602D5A6
:10521000DA6850066FD41A69910602D5DA689206E8
:1052200049D410BD6FF01001082220461961227781
:10523000DB6913F4407F6FD1FFF7B2FF2046FFF721
:10524000B3FF002223682277CDE76FF00801042224
:10525000204619612277DB699B075AD1FFF7A0FF2F
:105260002046FFF7A1FF002223682277B5E76FF001
:10527000040102222046196122779B6913F4407FC2
:1052800044D1FFF78DFF2046FFF78EFF00222368F1
:1052900022779CE76FF002010122196102779B6976
:1052A000990730D1FFF77CFF2046FFF77DFF0022F2
:1052B0002368227785E76FF0200220461A61BDE857
:1052C000104000F09FBD6FF0010220461A61FFF709
:1052D00065FF23688DE76FF0800220461A6100F0B9
:1052E00093FD23688BE76FF4807220461A6100F00B
:1052F0008DFD236889E76FF0400220461A61FFF7B1
:1053000055FF236887E7FFF74DFFD0E7FFF74AFF18
:10531000BCE7FFF747FFA6E7FFF744FF91E700BFB1
:10532000036A23F010032DE9F04103620446056A85
:105330000E46D0F80480294B25F0200582690F68BD
:10534000134043EA07278B6845EA0315244B98422C
:105350000BD003F58063984207D07268C4F80480CC
:10536000A761A2632562BDE8F081F36833F008020B
:1053700023D125F0800545EA0315B36933F40073A2
:1053800025F0400520D1736933F4807207D128F4E9
:105390004062B16942EA810242EA8308DDE741F2F4
:1053A000D071104801F06AFB28F44062B16973695A
:1053B00042EA810242EA8308CFE741F2C17109481B
:1053C00001F05CFBF368D4E741F2CF71054801F0CE
:1053D00055FB736933F48072D9D0E0E7FF8CFFFE90
:1053E00000000140CC380108142A2DE9F04115468F
:1053F00082B004460E4640F283803C2A40F085800D
:10540000336823F0100223F03003402A18BF002B2A
:1054100003D0B2F5803F40F0B881B36833F00203A7
:1054200079D194F83C30012B7ED00122022384F8FC
:105430003C2084F83D30142D58D8DFE815F0790071
:10544000570057005700C900570057005700FD008C
:105450005700570057001500570057005700230109
:1054600057005700570048012568AC4BAC4A9D4295
:1054700018BFB5F1804F14BF0123002395420CBF24
:10548000002303F0010302F5806295420CBF002364
:1054900003F0010302F5806295420CBF002303F084
:1054A00001031BB19F4B9D4240F07E812B6A23F488
:1054B00080532B629C4B2F6A6A68E96927F4005776
:1054C0000B40316843EA0128B36847EA0337934B3E
:1054D0009D4200F03D8103F580639D4200F03881DC
:1054E00073686A60C5F81C802B642F620023012258
:1054F000184684F83D2084F83C3002B0BDE8F081C5
:105500008A4BD340DB073FF57BAF40F64C518848D0
:1055100001F0B4FA74E740F64E51854801F0AEFA56
:1055200094F83C30012B80D1022002B0BDE8F0811C
:1055300020687A4B7A4A984218BFB0F1804F14BF66
:105540000123002390420CBF002303F0010302F566
:10555000806290420CBF002303F0010302F58062D9
:1055600090420CBF002303F0010302F57842904201
:105570000CBF002303F0010302F5705290420CBFF0
:10558000002303F0010302F5806290420CBF002368
:1055900003F0010302F5806290420CBF002303F088
:1055A0000103A2F5983290420CBF002303F00103DF
:1055B00002F5806290420CBF002303F001031BB18F
:1055C0005C4B984240F005813146FEF7DFFD8DE7E8
:1055D0002068524B524A984218BFB0F1804F14BF16
:1055E0000123002390420CBF002303F0010302F5C6
:1055F000806290420CBF002303F0010302F5806239
:1056000090420CBF002303F0010302F57842904260
:105610000CBF002303F0010302F5705290420CBF4F
:10562000002303F001031BB1434B984240F0CA80B2
:105630003146FFF775FE59E72068384B384A9842E3
:1056400018BFB0F1804F14BF0123002390420CBF5C
:10565000002303F0010302F5806290420CBF002397
:1056600003F0010302F5806290420CBF002303F0B7
:1056700001031BB12B4B984240F09D803146FEF751
:10568000E5FD33E72368254A934203D002F58062A3
:10569000934273D11A6A294922F480321A621A6A33
:1056A00058685D6D22F40032294035682943B56899
:1056B00042EA0542194DAB4253D005F58065AB4235
:1056C0004FD058607068596598651A620EE7236874
:1056D000124A934203D002F58062934247D11A6A7C
:1056E000174922F480121A621A6A58685D6D22F412
:1056F00000122940356841EA0521B56842EA0552A1
:10570000064DAB421ED005F58065AB421AD05860FD
:1057100070685965D8651A62E8E600BF000001406C
:105720000004004000040140FF8CFFFE1111110035
:10573000CC38010800200040001800408FFFFEFF19
:10574000FF8FFFFE20F48020756940EA8520DEE7A8
:10575000736933F480711ED122F4804242EA8312CD
:10576000BEE620F48030756940EA0520A9E740F6DE
:105770008C511B4801F082F92368B0E740F6825152
:10578000174801F07BF9236884E740F64D5114482F
:1057900001F074F941E641F658011148019201F017
:1057A0006DF97369019AD7E740F678510C4801F01A
:1057B00065F925687AE60A4840F66E5101F05EF90F
:1057C00020685BE7064840F6645101F057F920680D
:1057D0002EE7034840F65A5101F050F92068F3E6ED
:1057E000CC380108142A2DE9F041164682B004464F
:1057F0000D4640F296803C2A40F098802A68924BF1
:105800001340602B05D022F01002904B9A4240F0DA
:10581000AB80AB6833F0020340F08E802B6933F02D
:10582000040340F0938094F83C30012B00F0988002
:105830000122022384F83C2084F83D30142E66D8DF
:10584000DFE816F01601650065006500730165006C
:1058500065006500B4016500650065001500650020
:1058600065006500CE00650065006500980026684B
:10587000774B784A9E4218BFB6F1804F14BF012380
:10588000002396420CBF002303F0010302F580625F
:1058900096420CBF002303F0010302F5806296429A
:1058A0000CBF002303F001031BB16B4B9E4240F081
:1058B000DD81336A23F480533362684B376A726840
:1058C000F16927F400570B40296843EA0128AB68C7
:1058D00047EA03375E4B9E4200F09A8103F58063EE
:1058E0009E4200F09581334672606A68C6F81C805B
:1058F00032643762D969286941F40061D961D96994
:1059000021F48061D961DA6942EA0022DA61002378
:105910000122184684F83D2084F83C3002B0BDE8EE
:10592000F0814F4BD340DB073FF568AF40F6136182
:105930004C4801F0A3F861E740F61561494801F0D1
:105940009DF82B6933F004033FF46DAF40F6166108
:10595000444801F093F894F83C30012B7FF468AF91
:10596000022002B0BDE8F08140F614613D4801F02C
:1059700085F84EE72368364A934204D002F58062E8
:10598000934240F062811A6A374922F480121A6207
:105990001A6A58685E6D22F4001231402E6841EA9E
:1059A0000621AE6842EA0652294EB34200F03A811F
:1059B00006F58066B34200F0358158605965696824
:1059C0002869D9651A62596D41F400615965596DAC
:1059D00021F4806159655A6D42EA00225A6596E7C2
:1059E00023681B4A934204D002F58062934240F040
:1059F00025811A6A1D4922F480321A621A6A58688F
:105A00005E6D22F4003231402E683143AE6842EAC6
:105A100006420F4EB34200F00B8106F58066B3429A
:105A200000F00681586059656968286999651A62AD
:105A3000596D41F008015965596D21F0040159650E
:105A40005A6D02435A6562E7EFFFFEFF4000010016
:105A5000000001400004004000040140FF8CFFFEF4
:105A600011111100CC380108FF8FFFFE8FFFFEFFE0
:105A700020688C4B8C4A984218BFB0F1804F14BFFD
:105A80000123002390420CBF002303F0010302F521
:105A9000806290420CBF002303F0010302F5806294
:105AA00090420CBF002303F0010302F578429042BC
:105AB0000CBF002303F0010302F5705290420CBFAB
:105AC000002303F0010302F5806290420CBF002323
:105AD00003F0010302F5806290420CBF002303F043
